{
  "contractName": "ArtMarketplace",
  "abi": [
    {
      "inputs": [
        {
          "internalType": "contract ArtToken",
          "name": "_token",
          "type": "address"
        }
      ],
      "stateMutability": "nonpayable",
      "type": "constructor"
    },
    {
      "anonymous": false,
      "inputs": [
        {
          "indexed": false,
          "internalType": "uint256",
          "name": "id",
          "type": "uint256"
        },
        {
          "indexed": false,
          "internalType": "uint256",
          "name": "tokenId",
          "type": "uint256"
        },
        {
          "indexed": false,
          "internalType": "uint256",
          "name": "price",
          "type": "uint256"
        }
      ],
      "name": "itemAddedForSale",
      "type": "event"
    },
    {
      "anonymous": false,
      "inputs": [
        {
          "indexed": false,
          "internalType": "uint256",
          "name": "id",
          "type": "uint256"
        },
        {
          "indexed": false,
          "internalType": "address",
          "name": "buyer",
          "type": "address"
        },
        {
          "indexed": false,
          "internalType": "uint256",
          "name": "price",
          "type": "uint256"
        }
      ],
      "name": "itemSold",
      "type": "event"
    },
    {
      "inputs": [
        {
          "internalType": "uint256",
          "name": "",
          "type": "uint256"
        }
      ],
      "name": "activeItems",
      "outputs": [
        {
          "internalType": "bool",
          "name": "",
          "type": "bool"
        }
      ],
      "stateMutability": "view",
      "type": "function",
      "constant": true
    },
    {
      "inputs": [
        {
          "internalType": "uint256",
          "name": "",
          "type": "uint256"
        }
      ],
      "name": "itemsForSale",
      "outputs": [
        {
          "internalType": "uint256",
          "name": "id",
          "type": "uint256"
        },
        {
          "internalType": "uint256",
          "name": "tokenId",
          "type": "uint256"
        },
        {
          "internalType": "address payable",
          "name": "seller",
          "type": "address"
        },
        {
          "internalType": "uint256",
          "name": "price",
          "type": "uint256"
        },
        {
          "internalType": "bool",
          "name": "isSold",
          "type": "bool"
        }
      ],
      "stateMutability": "view",
      "type": "function",
      "constant": true
    },
    {
      "inputs": [
        {
          "internalType": "uint256",
          "name": "tokenId",
          "type": "uint256"
        },
        {
          "internalType": "uint256",
          "name": "price",
          "type": "uint256"
        }
      ],
      "name": "putItemForSale",
      "outputs": [
        {
          "internalType": "uint256",
          "name": "",
          "type": "uint256"
        }
      ],
      "stateMutability": "nonpayable",
      "type": "function"
    },
    {
      "inputs": [
        {
          "internalType": "uint256",
          "name": "id",
          "type": "uint256"
        }
      ],
      "name": "buyItem",
      "outputs": [],
      "stateMutability": "payable",
      "type": "function",
      "payable": true
    },
    {
      "inputs": [],
      "name": "totalItemsForSale",
      "outputs": [
        {
          "internalType": "uint256",
          "name": "",
          "type": "uint256"
        }
      ],
      "stateMutability": "view",
      "type": "function",
      "constant": true
    }
  ],
  "bytecode": "0x60806040523480156200001157600080fd5b5060405162001061380380620010618339818101604052810190620000379190620000fc565b806000806101000a81548173ffffffffffffffffffffffffffffffffffffffff021916908373ffffffffffffffffffffffffffffffffffffffff160217905550506200012e565b600080fd5b600073ffffffffffffffffffffffffffffffffffffffff82169050919050565b6000620000b08262000083565b9050919050565b6000620000c482620000a3565b9050919050565b620000d681620000b7565b8114620000e257600080fd5b50565b600081519050620000f681620000cb565b92915050565b6000602082840312156200011557620001146200007e565b5b60006200012584828501620000e5565b91505092915050565b610f23806200013e6000396000f3fe60806040526004361061004a5760003560e01c8063092d0afc1461004f5780639c318c7b14610090578063e7fb74c7146100cd578063ec8120c9146100e9578063f4f3576414610114575b600080fd5b34801561005b57600080fd5b5061007660048036038101906100719190610983565b610151565b604051610087959493929190610a1b565b60405180910390f35b34801561009c57600080fd5b506100b760048036038101906100b29190610983565b6101c4565b6040516100c49190610a6e565b60405180910390f35b6100e760048036038101906100e29190610983565b6101e4565b005b3480156100f557600080fd5b506100fe61062d565b60405161010b9190610a89565b60405180910390f35b34801561012057600080fd5b5061013b60048036038101906101369190610aa4565b61063a565b6040516101489190610a89565b60405180910390f35b6001818154811061016157600080fd5b90600052602060002090600502016000915090508060000154908060010154908060020160009054906101000a900473ffffffffffffffffffffffffffffffffffffffff16908060030154908060040160009054906101000a900460ff16905085565b60026020528060005260406000206000915054906101000a900460ff1681565b806001805490508110801561021d5750806001828154811061020957610208610ae4565b5b906000526020600020906005020160000154145b61025c576040517f08c379a000000000000000000000000000000000000000000000000000000000815260040161025390610b70565b60405180910390fd5b816001818154811061027157610270610ae4565b5b906000526020600020906005020160040160009054906101000a900460ff16156102d0576040517f08c379a00000000000000000000000000000000000000000000000000000000081526004016102c790610bdc565b60405180910390fd5b600183815481106102e4576102e3610ae4565b5b906000526020600020906005020160030154341015610338576040517f08c379a000000000000000000000000000000000000000000000000000000000815260040161032f90610c48565b60405180910390fd5b6001838154811061034c5761034b610ae4565b5b906000526020600020906005020160020160009054906101000a900473ffffffffffffffffffffffffffffffffffffffff1673ffffffffffffffffffffffffffffffffffffffff163373ffffffffffffffffffffffffffffffffffffffff16036103b557600080fd5b60018084815481106103ca576103c9610ae4565b5b906000526020600020906005020160040160006101000a81548160ff0219169083151502179055506000600260006001868154811061040c5761040b610ae4565b5b906000526020600020906005020160010154815260200190815260200160002060006101000a81548160ff02191690831515021790555060008054906101000a900473ffffffffffffffffffffffffffffffffffffffff1673ffffffffffffffffffffffffffffffffffffffff16634f8f4dab6001858154811061049357610492610ae4565b5b906000526020600020906005020160020160009054906101000a900473ffffffffffffffffffffffffffffffffffffffff1633600187815481106104da576104d9610ae4565b5b9060005260206000209060050201600101546040518463ffffffff1660e01b815260040161050a93929190610ce8565b600060405180830381600087803b15801561052457600080fd5b505af1158015610538573d6000803e3d6000fd5b50505050600183815481106105505761054f610ae4565b5b906000526020600020906005020160020160009054906101000a900473ffffffffffffffffffffffffffffffffffffffff1673ffffffffffffffffffffffffffffffffffffffff166108fc349081150290604051600060405180830381858888f193505050501580156105c7573d6000803e3d6000fd5b507f8164c6f8917e418c49813e4586897c7067de5a886aa1bea980cd11fa57d482648333600186815481106105ff576105fe610ae4565b5b90600052602060002090600502016003015460405161062093929190610d1f565b60405180910390a1505050565b6000600180549050905090565b6000823373ffffffffffffffffffffffffffffffffffffffff1660008054906101000a900473ffffffffffffffffffffffffffffffffffffffff1673ffffffffffffffffffffffffffffffffffffffff16636352211e836040518263ffffffff1660e01b81526004016106ad9190610a89565b602060405180830381865afa1580156106ca573d6000803e3d6000fd5b505050506040513d601f19601f820116820180604052508101906106ee9190610d82565b73ffffffffffffffffffffffffffffffffffffffff1614610744576040517f08c379a000000000000000000000000000000000000000000000000000000000815260040161073b90610dfb565b60405180910390fd5b6002600085815260200190815260200160002060009054906101000a900460ff16156107a5576040517f08c379a000000000000000000000000000000000000000000000000000000000815260040161079c90610e67565b60405180910390fd5b6000600180549050905060016040518060a001604052808381526020018781526020013373ffffffffffffffffffffffffffffffffffffffff168152602001868152602001600015158152509080600181540180825580915050600190039060005260206000209060050201600090919091909150600082015181600001556020820151816001015560408201518160020160006101000a81548173ffffffffffffffffffffffffffffffffffffffff021916908373ffffffffffffffffffffffffffffffffffffffff1602179055506060820151816003015560808201518160040160006101000a81548160ff021916908315150217905550505060016002600087815260200190815260200160002060006101000a81548160ff02191690831515021790555080600182815481106108e2576108e1610ae4565b5b9060005260206000209060050201600001541461090257610901610e87565b5b7fafd8780f802588de8705083b0f6a33ac59b8d0228c80f9babe0549c1621c33f881868660405161093593929190610eb6565b60405180910390a1809250505092915050565b600080fd5b6000819050919050565b6109608161094d565b811461096b57600080fd5b50565b60008135905061097d81610957565b92915050565b60006020828403121561099957610998610948565b5b60006109a78482850161096e565b91505092915050565b6109b98161094d565b82525050565b600073ffffffffffffffffffffffffffffffffffffffff82169050919050565b60006109ea826109bf565b9050919050565b6109fa816109df565b82525050565b60008115159050919050565b610a1581610a00565b82525050565b600060a082019050610a3060008301886109b0565b610a3d60208301876109b0565b610a4a60408301866109f1565b610a5760608301856109b0565b610a646080830184610a0c565b9695505050505050565b6000602082019050610a836000830184610a0c565b92915050565b6000602082019050610a9e60008301846109b0565b92915050565b60008060408385031215610abb57610aba610948565b5b6000610ac98582860161096e565b9250506020610ada8582860161096e565b9150509250929050565b7f4e487b7100000000000000000000000000000000000000000000000000000000600052603260045260246000fd5b600082825260208201905092915050565b7f436f756c64206e6f742066696e64206974656d00000000000000000000000000600082015250565b6000610b5a601383610b13565b9150610b6582610b24565b602082019050919050565b60006020820190508181036000830152610b8981610b4d565b9050919050565b7f4974656d20697320616c726561647920736f6c64000000000000000000000000600082015250565b6000610bc6601483610b13565b9150610bd182610b90565b602082019050919050565b60006020820190508181036000830152610bf581610bb9565b9050919050565b7f4e6f7420656e6f7567682066756e64732073656e740000000000000000000000600082015250565b6000610c32601583610b13565b9150610c3d82610bfc565b602082019050919050565b60006020820190508181036000830152610c6181610c25565b9050919050565b6000819050919050565b6000610c8d610c88610c83846109bf565b610c68565b6109bf565b9050919050565b6000610c9f82610c72565b9050919050565b6000610cb182610c94565b9050919050565b610cc181610ca6565b82525050565b6000610cd2826109bf565b9050919050565b610ce281610cc7565b82525050565b6000606082019050610cfd6000830186610cb8565b610d0a6020830185610cd9565b610d1760408301846109b0565b949350505050565b6000606082019050610d3460008301866109b0565b610d416020830185610cd9565b610d4e60408301846109b0565b949350505050565b610d5f81610cc7565b8114610d6a57600080fd5b50565b600081519050610d7c81610d56565b92915050565b600060208284031215610d9857610d97610948565b5b6000610da684828501610d6d565b91505092915050565b7f53656e64657220646f6573206e6f74206f776e20746865206974656d00000000600082015250565b6000610de5601c83610b13565b9150610df082610daf565b602082019050919050565b60006020820190508181036000830152610e1481610dd8565b9050919050565b7f4974656d20697320616c726561647920757020666f722073616c650000000000600082015250565b6000610e51601b83610b13565b9150610e5c82610e1b565b602082019050919050565b60006020820190508181036000830152610e8081610e44565b9050919050565b7f4e487b7100000000000000000000000000000000000000000000000000000000600052600160045260246000fd5b6000606082019050610ecb60008301866109b0565b610ed860208301856109b0565b610ee560408301846109b0565b94935050505056fea2646970667358221220f916ecfd03254bfde455ac2ff720a8937e3d4af68faf0c53eb3909d103ea6a9764736f6c634300080f0033",
  "immutableReferences": {},
  "source": "// SPDX-License-Identifier: MIT\r\npragma solidity ^0.8.0;\r\n\r\nimport \"./ArtToken.sol\";\r\n\r\ncontract ArtMarketplace {\r\n  ArtToken private token;\r\n\r\n  struct ItemForSale {\r\n    uint256 id;\r\n    uint256 tokenId;\r\n    address payable seller;\r\n    uint256 price;\r\n    bool isSold;\r\n  }\r\n\r\n  ItemForSale[] public itemsForSale;\r\n  mapping(uint256 => bool) public activeItems; // tokenId => ativo?\r\n\r\n  event itemAddedForSale(uint256 id, uint256 tokenId, uint256 price);\r\n  event itemSold(uint256 id, address buyer, uint256 price);\r\n\r\n  constructor(ArtToken _token) {\r\n      token = _token;\r\n  }\r\n\r\n  modifier OnlyItemOwner(uint256 tokenId){\r\n    require(token.ownerOf(tokenId) == msg.sender, \"Sender does not own the item\");\r\n    _;\r\n  }\r\n\r\n  modifier HasTransferApproval(uint256 tokenId){\r\n    require(token.getApproved(tokenId) == address(this), \"Market is not approved\");\r\n    _;\r\n  }\r\n\r\n  modifier ItemExists(uint256 id){\r\n    require(id < itemsForSale.length && itemsForSale[id].id == id, \"Could not find item\");\r\n    _;\r\n  }\r\n\r\n  modifier IsForSale(uint256 id){\r\n    require(!itemsForSale[id].isSold, \"Item is already sold\");\r\n    _;\r\n  }\r\n\r\n  function putItemForSale(uint256 tokenId, uint256 price) \r\n    OnlyItemOwner(tokenId) \r\n    external \r\n    returns (uint256){\r\n      require(!activeItems[tokenId], \"Item is already up for sale\");\r\n\r\n      uint256 newItemId = itemsForSale.length;\r\n      itemsForSale.push(ItemForSale({\r\n        id: newItemId,\r\n        tokenId: tokenId,\r\n        seller: payable(msg.sender),\r\n        price: price,\r\n        isSold: false\r\n      }));\r\n      activeItems[tokenId] = true;\r\n\r\n      assert(itemsForSale[newItemId].id == newItemId);\r\n      emit itemAddedForSale(newItemId, tokenId, price);\r\n      return newItemId;\r\n  }\r\n\r\n  function buyItem(uint256 id) \r\n    ItemExists(id)\r\n    IsForSale(id)\r\n    payable \r\n    external {\r\n      require(msg.value >= itemsForSale[id].price, \"Not enough funds sent\");\r\n      require(msg.sender != itemsForSale[id].seller);\r\n\r\n      itemsForSale[id].isSold = true;\r\n      activeItems[itemsForSale[id].tokenId] = false;\r\n      token.customTransfer(itemsForSale[id].seller, msg.sender, itemsForSale[id].tokenId);\r\n      itemsForSale[id].seller.transfer(msg.value);\r\n\r\n      emit itemSold(id, msg.sender, itemsForSale[id].price);\r\n    }\r\n\r\n  function totalItemsForSale() external view returns(uint256) {\r\n    return itemsForSale.length;\r\n  }\r\n}\r\n\r\n//TODO:\r\n// - don't support bidding\r\n// - the user can't withdraw the item\r\n",
  "sourcePath": "C:\\Users\\SelahattinSonmez\\Desktop\\NFT-Marketplace\\contracts\\ArtMarketplace.sol",
  "compiler": {
    "name": "solc",
    "version": "0.8.15+commit.e14f2714.Emscripten.clang"
  },
  "schemaVersion": "3.4.4",
  "updatedAt": "2022-06-24T15:55:53.167Z",
  "networkType": "ethereum",
  "devdoc": {
    "kind": "dev",
    "methods": {},
    "version": 1
  },
  "userdoc": {
    "kind": "user",
    "methods": {},
    "version": 1
  }
}