{
  "contractName": "ArtToken",
  "abi": [
    {
      "inputs": [],
      "stateMutability": "nonpayable",
      "type": "constructor"
    },
    {
      "anonymous": false,
      "inputs": [
        {
          "indexed": true,
          "internalType": "address",
          "name": "owner",
          "type": "address"
        },
        {
          "indexed": true,
          "internalType": "address",
          "name": "approved",
          "type": "address"
        },
        {
          "indexed": true,
          "internalType": "uint256",
          "name": "tokenId",
          "type": "uint256"
        }
      ],
      "name": "Approval",
      "type": "event"
    },
    {
      "anonymous": false,
      "inputs": [
        {
          "indexed": true,
          "internalType": "address",
          "name": "owner",
          "type": "address"
        },
        {
          "indexed": true,
          "internalType": "address",
          "name": "operator",
          "type": "address"
        },
        {
          "indexed": false,
          "internalType": "bool",
          "name": "approved",
          "type": "bool"
        }
      ],
      "name": "ApprovalForAll",
      "type": "event"
    },
    {
      "anonymous": false,
      "inputs": [
        {
          "indexed": true,
          "internalType": "address",
          "name": "from",
          "type": "address"
        },
        {
          "indexed": true,
          "internalType": "address",
          "name": "to",
          "type": "address"
        },
        {
          "indexed": true,
          "internalType": "uint256",
          "name": "tokenId",
          "type": "uint256"
        }
      ],
      "name": "Transfer",
      "type": "event"
    },
    {
      "inputs": [
        {
          "internalType": "uint256",
          "name": "",
          "type": "uint256"
        }
      ],
      "name": "Items",
      "outputs": [
        {
          "internalType": "uint256",
          "name": "id",
          "type": "uint256"
        },
        {
          "internalType": "address",
          "name": "creator",
          "type": "address"
        },
        {
          "internalType": "string",
          "name": "uri",
          "type": "string"
        }
      ],
      "stateMutability": "view",
      "type": "function",
      "constant": true
    },
    {
      "inputs": [
        {
          "internalType": "address",
          "name": "to",
          "type": "address"
        },
        {
          "internalType": "uint256",
          "name": "tokenId",
          "type": "uint256"
        }
      ],
      "name": "approve",
      "outputs": [],
      "stateMutability": "nonpayable",
      "type": "function"
    },
    {
      "inputs": [
        {
          "internalType": "address",
          "name": "owner",
          "type": "address"
        }
      ],
      "name": "balanceOf",
      "outputs": [
        {
          "internalType": "uint256",
          "name": "",
          "type": "uint256"
        }
      ],
      "stateMutability": "view",
      "type": "function",
      "constant": true
    },
    {
      "inputs": [
        {
          "internalType": "uint256",
          "name": "tokenId",
          "type": "uint256"
        }
      ],
      "name": "getApproved",
      "outputs": [
        {
          "internalType": "address",
          "name": "",
          "type": "address"
        }
      ],
      "stateMutability": "view",
      "type": "function",
      "constant": true
    },
    {
      "inputs": [
        {
          "internalType": "address",
          "name": "owner",
          "type": "address"
        },
        {
          "internalType": "address",
          "name": "operator",
          "type": "address"
        }
      ],
      "name": "isApprovedForAll",
      "outputs": [
        {
          "internalType": "bool",
          "name": "",
          "type": "bool"
        }
      ],
      "stateMutability": "view",
      "type": "function",
      "constant": true
    },
    {
      "inputs": [],
      "name": "marketplace",
      "outputs": [
        {
          "internalType": "address",
          "name": "",
          "type": "address"
        }
      ],
      "stateMutability": "view",
      "type": "function",
      "constant": true
    },
    {
      "inputs": [],
      "name": "name",
      "outputs": [
        {
          "internalType": "string",
          "name": "",
          "type": "string"
        }
      ],
      "stateMutability": "view",
      "type": "function",
      "constant": true
    },
    {
      "inputs": [
        {
          "internalType": "uint256",
          "name": "tokenId",
          "type": "uint256"
        }
      ],
      "name": "ownerOf",
      "outputs": [
        {
          "internalType": "address",
          "name": "",
          "type": "address"
        }
      ],
      "stateMutability": "view",
      "type": "function",
      "constant": true
    },
    {
      "inputs": [
        {
          "internalType": "address",
          "name": "from",
          "type": "address"
        },
        {
          "internalType": "address",
          "name": "to",
          "type": "address"
        },
        {
          "internalType": "uint256",
          "name": "tokenId",
          "type": "uint256"
        }
      ],
      "name": "safeTransferFrom",
      "outputs": [],
      "stateMutability": "nonpayable",
      "type": "function"
    },
    {
      "inputs": [
        {
          "internalType": "address",
          "name": "from",
          "type": "address"
        },
        {
          "internalType": "address",
          "name": "to",
          "type": "address"
        },
        {
          "internalType": "uint256",
          "name": "tokenId",
          "type": "uint256"
        },
        {
          "internalType": "bytes",
          "name": "_data",
          "type": "bytes"
        }
      ],
      "name": "safeTransferFrom",
      "outputs": [],
      "stateMutability": "nonpayable",
      "type": "function"
    },
    {
      "inputs": [
        {
          "internalType": "address",
          "name": "operator",
          "type": "address"
        },
        {
          "internalType": "bool",
          "name": "approved",
          "type": "bool"
        }
      ],
      "name": "setApprovalForAll",
      "outputs": [],
      "stateMutability": "nonpayable",
      "type": "function"
    },
    {
      "inputs": [
        {
          "internalType": "bytes4",
          "name": "interfaceId",
          "type": "bytes4"
        }
      ],
      "name": "supportsInterface",
      "outputs": [
        {
          "internalType": "bool",
          "name": "",
          "type": "bool"
        }
      ],
      "stateMutability": "view",
      "type": "function",
      "constant": true
    },
    {
      "inputs": [],
      "name": "symbol",
      "outputs": [
        {
          "internalType": "string",
          "name": "",
          "type": "string"
        }
      ],
      "stateMutability": "view",
      "type": "function",
      "constant": true
    },
    {
      "inputs": [
        {
          "internalType": "uint256",
          "name": "index",
          "type": "uint256"
        }
      ],
      "name": "tokenByIndex",
      "outputs": [
        {
          "internalType": "uint256",
          "name": "",
          "type": "uint256"
        }
      ],
      "stateMutability": "view",
      "type": "function",
      "constant": true
    },
    {
      "inputs": [
        {
          "internalType": "address",
          "name": "owner",
          "type": "address"
        },
        {
          "internalType": "uint256",
          "name": "index",
          "type": "uint256"
        }
      ],
      "name": "tokenOfOwnerByIndex",
      "outputs": [
        {
          "internalType": "uint256",
          "name": "",
          "type": "uint256"
        }
      ],
      "stateMutability": "view",
      "type": "function",
      "constant": true
    },
    {
      "inputs": [],
      "name": "totalSupply",
      "outputs": [
        {
          "internalType": "uint256",
          "name": "",
          "type": "uint256"
        }
      ],
      "stateMutability": "view",
      "type": "function",
      "constant": true
    },
    {
      "inputs": [
        {
          "internalType": "address",
          "name": "from",
          "type": "address"
        },
        {
          "internalType": "address",
          "name": "to",
          "type": "address"
        },
        {
          "internalType": "uint256",
          "name": "tokenId",
          "type": "uint256"
        }
      ],
      "name": "transferFrom",
      "outputs": [],
      "stateMutability": "nonpayable",
      "type": "function"
    },
    {
      "inputs": [
        {
          "internalType": "string",
          "name": "uri",
          "type": "string"
        }
      ],
      "name": "mint",
      "outputs": [
        {
          "internalType": "uint256",
          "name": "",
          "type": "uint256"
        }
      ],
      "stateMutability": "nonpayable",
      "type": "function"
    },
    {
      "inputs": [
        {
          "internalType": "uint256",
          "name": "tokenId",
          "type": "uint256"
        }
      ],
      "name": "tokenURI",
      "outputs": [
        {
          "internalType": "string",
          "name": "",
          "type": "string"
        }
      ],
      "stateMutability": "view",
      "type": "function",
      "constant": true
    },
    {
      "inputs": [
        {
          "internalType": "address",
          "name": "market",
          "type": "address"
        }
      ],
      "name": "setMarketplace",
      "outputs": [],
      "stateMutability": "nonpayable",
      "type": "function"
    },
    {
      "inputs": [
        {
          "internalType": "address",
          "name": "from",
          "type": "address"
        },
        {
          "internalType": "address",
          "name": "to",
          "type": "address"
        },
        {
          "internalType": "uint256",
          "name": "tokenId",
          "type": "uint256"
        }
      ],
      "name": "customTransfer",
      "outputs": [],
      "stateMutability": "nonpayable",
      "type": "function"
    }
  ],
  "bytecode": "0x60806040523480156200001157600080fd5b506040518060400160405280600881526020017f417274546f6b656e0000000000000000000000000000000000000000000000008152506040518060400160405280600481526020017f4152544b0000000000000000000000000000000000000000000000000000000081525081600090816200008f919062000324565b508060019081620000a1919062000324565b5050506200040b565b600081519050919050565b7f4e487b7100000000000000000000000000000000000000000000000000000000600052604160045260246000fd5b7f4e487b7100000000000000000000000000000000000000000000000000000000600052602260045260246000fd5b600060028204905060018216806200012c57607f821691505b602082108103620001425762000141620000e4565b5b50919050565b60008190508160005260206000209050919050565b60006020601f8301049050919050565b600082821b905092915050565b600060088302620001ac7fffffffffffffffffffffffffffffffffffffffffffffffffffffffffffffffff826200016d565b620001b886836200016d565b95508019841693508086168417925050509392505050565b6000819050919050565b6000819050919050565b600062000205620001ff620001f984620001d0565b620001da565b620001d0565b9050919050565b6000819050919050565b6200022183620001e4565b6200023962000230826200020c565b8484546200017a565b825550505050565b600090565b6200025062000241565b6200025d81848462000216565b505050565b5b8181101562000285576200027960008262000246565b60018101905062000263565b5050565b601f821115620002d4576200029e8162000148565b620002a9846200015d565b81016020851015620002b9578190505b620002d1620002c8856200015d565b83018262000262565b50505b505050565b600082821c905092915050565b6000620002f960001984600802620002d9565b1980831691505092915050565b6000620003148383620002e6565b9150826002028217905092915050565b6200032f82620000aa565b67ffffffffffffffff8111156200034b576200034a620000b5565b5b62000357825462000113565b6200036482828562000289565b600060209050601f8311600181146200039c576000841562000387578287015190505b62000393858262000306565b86555062000403565b601f198416620003ac8662000148565b60005b82811015620003d657848901518255600182019150602085019450602081019050620003af565b86831015620003f65784890151620003f2601f891682620002e6565b8355505b6001600288020188555050505b505050505050565b61332e806200041b6000396000f3fe608060405234801561001057600080fd5b50600436106101375760003560e01c80634f8f4dab116100b8578063a22cb4651161007c578063a22cb46514610374578063abc8c7af14610390578063b88d4fde146103ae578063c87b56dd146103ca578063d85d3d27146103fa578063e985e9c51461042a57610137565b80634f8f4dab146102be5780636352211e146102da57806370a082311461030a57806373ad6c2d1461033a57806395d89b411461035657610137565b806318160ddd116100ff57806318160ddd1461020857806323b872dd146102265780632f745c591461024257806342842e0e146102725780634f6ccce71461028e57610137565b806301ffc9a71461013c57806306fdde031461016c578063081812fc1461018a578063095ea7b3146101ba57806317b47cc4146101d6575b600080fd5b61015660048036038101906101519190611ef3565b61045a565b6040516101639190611f3b565b60405180910390f35b6101746104d4565b6040516101819190611fef565b60405180910390f35b6101a4600480360381019061019f9190612047565b610566565b6040516101b191906120b5565b60405180910390f35b6101d460048036038101906101cf91906120fc565b6105eb565b005b6101f060048036038101906101eb9190612047565b610702565b6040516101ff9392919061214b565b60405180910390f35b6102106107d4565b60405161021d9190612189565b60405180910390f35b610240600480360381019061023b91906121a4565b6107e1565b005b61025c600480360381019061025791906120fc565b610841565b6040516102699190612189565b60405180910390f35b61028c600480360381019061028791906121a4565b6108e6565b005b6102a860048036038101906102a39190612047565b610906565b6040516102b59190612189565b60405180910390f35b6102d860048036038101906102d391906121a4565b610977565b005b6102f460048036038101906102ef9190612047565b610987565b60405161030191906120b5565b60405180910390f35b610324600480360381019061031f91906121f7565b610a38565b6040516103319190612189565b60405180910390f35b610354600480360381019061034f91906121f7565b610aef565b005b61035e610b33565b60405161036b9190611fef565b60405180910390f35b61038e60048036038101906103899190612250565b610bc5565b005b610398610d45565b6040516103a591906120b5565b60405180910390f35b6103c860048036038101906103c391906123c5565b610d6b565b005b6103e460048036038101906103df9190612047565b610dcd565b6040516103f19190611fef565b60405180910390f35b610414600480360381019061040f91906124e9565b610ebd565b6040516104219190612189565b60405180910390f35b610444600480360381019061043f9190612532565b610fc4565b6040516104519190611f3b565b60405180910390f35b60007f780e9d63000000000000000000000000000000000000000000000000000000007bffffffffffffffffffffffffffffffffffffffffffffffffffffffff1916827bffffffffffffffffffffffffffffffffffffffffffffffffffffffff191614806104cd57506104cc82611058565b5b9050919050565b6060600080546104e3906125a1565b80601f016020809104026020016040519081016040528092919081815260200182805461050f906125a1565b801561055c5780601f106105315761010080835404028352916020019161055c565b820191906000526020600020905b81548152906001019060200180831161053f57829003601f168201915b5050505050905090565b60006105718261113a565b6105b0576040517f08c379a00000000000000000000000000000000000000000000000000000000081526004016105a790612644565b60405180910390fd5b6004600083815260200190815260200160002060009054906101000a900473ffffffffffffffffffffffffffffffffffffffff169050919050565b60006105f682610987565b90508073ffffffffffffffffffffffffffffffffffffffff168373ffffffffffffffffffffffffffffffffffffffff1603610666576040517f08c379a000000000000000000000000000000000000000000000000000000000815260040161065d906126d6565b60405180910390fd5b8073ffffffffffffffffffffffffffffffffffffffff166106856111a6565b73ffffffffffffffffffffffffffffffffffffffff1614806106b457506106b3816106ae6111a6565b610fc4565b5b6106f3576040517f08c379a00000000000000000000000000000000000000000000000000000000081526004016106ea90612768565b60405180910390fd5b6106fd83836111ae565b505050565b600c6020528060005260406000206000915090508060000154908060010160009054906101000a900473ffffffffffffffffffffffffffffffffffffffff1690806002018054610751906125a1565b80601f016020809104026020016040519081016040528092919081815260200182805461077d906125a1565b80156107ca5780601f1061079f576101008083540402835291602001916107ca565b820191906000526020600020905b8154815290600101906020018083116107ad57829003601f168201915b5050505050905083565b6000600880549050905090565b6107f26107ec6111a6565b82611267565b610831576040517f08c379a0000000000000000000000000000000000000000000000000000000008152600401610828906127fa565b60405180910390fd5b61083c838383611345565b505050565b600061084c83610a38565b821061088d576040517f08c379a00000000000000000000000000000000000000000000000000000000081526004016108849061288c565b60405180910390fd5b600660008473ffffffffffffffffffffffffffffffffffffffff1673ffffffffffffffffffffffffffffffffffffffff168152602001908152602001600020600083815260200190815260200160002054905092915050565b61090183838360405180602001604052806000815250610d6b565b505050565b60006109106107d4565b8210610951576040517f08c379a00000000000000000000000000000000000000000000000000000000081526004016109489061291e565b60405180910390fd5b600882815481106109655761096461293e565b5b90600052602060002001549050919050565b610982838383611345565b505050565b6000806002600084815260200190815260200160002060009054906101000a900473ffffffffffffffffffffffffffffffffffffffff169050600073ffffffffffffffffffffffffffffffffffffffff168173ffffffffffffffffffffffffffffffffffffffff1603610a2f576040517f08c379a0000000000000000000000000000000000000000000000000000000008152600401610a26906129df565b60405180910390fd5b80915050919050565b60008073ffffffffffffffffffffffffffffffffffffffff168273ffffffffffffffffffffffffffffffffffffffff1603610aa8576040517f08c379a0000000000000000000000000000000000000000000000000000000008152600401610a9f90612a71565b60405180910390fd5b600360008373ffffffffffffffffffffffffffffffffffffffff1673ffffffffffffffffffffffffffffffffffffffff168152602001908152602001600020549050919050565b80600b60006101000a81548173ffffffffffffffffffffffffffffffffffffffff021916908373ffffffffffffffffffffffffffffffffffffffff16021790555050565b606060018054610b42906125a1565b80601f0160208091040260200160405190810160405280929190818152602001828054610b6e906125a1565b8015610bbb5780601f10610b9057610100808354040283529160200191610bbb565b820191906000526020600020905b815481529060010190602001808311610b9e57829003601f168201915b5050505050905090565b610bcd6111a6565b73ffffffffffffffffffffffffffffffffffffffff168273ffffffffffffffffffffffffffffffffffffffff1603610c3a576040517f08c379a0000000000000000000000000000000000000000000000000000000008152600401610c3190612add565b60405180910390fd5b8060056000610c476111a6565b73ffffffffffffffffffffffffffffffffffffffff1673ffffffffffffffffffffffffffffffffffffffff16815260200190815260200160002060008473ffffffffffffffffffffffffffffffffffffffff1673ffffffffffffffffffffffffffffffffffffffff16815260200190815260200160002060006101000a81548160ff0219169083151502179055508173ffffffffffffffffffffffffffffffffffffffff16610cf46111a6565b73ffffffffffffffffffffffffffffffffffffffff167f17307eab39ab6107e8899845ad3d59bd9653f200f220920489ca2b5937696c3183604051610d399190611f3b565b60405180910390a35050565b600b60009054906101000a900473ffffffffffffffffffffffffffffffffffffffff1681565b610d7c610d766111a6565b83611267565b610dbb576040517f08c379a0000000000000000000000000000000000000000000000000000000008152600401610db2906127fa565b60405180910390fd5b610dc7848484846115a0565b50505050565b6060610dd88261113a565b610e17576040517f08c379a0000000000000000000000000000000000000000000000000000000008152600401610e0e90612b6f565b60405180910390fd5b600c60008381526020019081526020016000206002018054610e38906125a1565b80601f0160208091040260200160405190810160405280929190818152602001828054610e64906125a1565b8015610eb15780601f10610e8657610100808354040283529160200191610eb1565b820191906000526020600020905b815481529060010190602001808311610e9457829003601f168201915b50505050509050919050565b6000610ec9600a6115fc565b6000610ed5600a611612565b9050610ee13382611620565b610f0d600b60009054906101000a900473ffffffffffffffffffffffffffffffffffffffff16826105eb565b60405180606001604052808281526020013373ffffffffffffffffffffffffffffffffffffffff16815260200184815250600c60008381526020019081526020016000206000820151816000015560208201518160010160006101000a81548173ffffffffffffffffffffffffffffffffffffffff021916908373ffffffffffffffffffffffffffffffffffffffff1602179055506040820151816002019081610fb79190612d3b565b5090505080915050919050565b6000600560008473ffffffffffffffffffffffffffffffffffffffff1673ffffffffffffffffffffffffffffffffffffffff16815260200190815260200160002060008373ffffffffffffffffffffffffffffffffffffffff1673ffffffffffffffffffffffffffffffffffffffff16815260200190815260200160002060009054906101000a900460ff16905092915050565b60007f80ac58cd000000000000000000000000000000000000000000000000000000007bffffffffffffffffffffffffffffffffffffffffffffffffffffffff1916827bffffffffffffffffffffffffffffffffffffffffffffffffffffffff1916148061112357507f5b5e139f000000000000000000000000000000000000000000000000000000007bffffffffffffffffffffffffffffffffffffffffffffffffffffffff1916827bffffffffffffffffffffffffffffffffffffffffffffffffffffffff1916145b8061113357506111328261163e565b5b9050919050565b60008073ffffffffffffffffffffffffffffffffffffffff166002600084815260200190815260200160002060009054906101000a900473ffffffffffffffffffffffffffffffffffffffff1673ffffffffffffffffffffffffffffffffffffffff1614159050919050565b600033905090565b816004600083815260200190815260200160002060006101000a81548173ffffffffffffffffffffffffffffffffffffffff021916908373ffffffffffffffffffffffffffffffffffffffff160217905550808273ffffffffffffffffffffffffffffffffffffffff1661122183610987565b73ffffffffffffffffffffffffffffffffffffffff167f8c5be1e5ebec7d5bd14f71427d1e84f3dd0314c0f7b2291e5b200ac8c7c3b92560405160405180910390a45050565b60006112728261113a565b6112b1576040517f08c379a00000000000000000000000000000000000000000000000000000000081526004016112a890612e7f565b60405180910390fd5b60006112bc83610987565b90508073ffffffffffffffffffffffffffffffffffffffff168473ffffffffffffffffffffffffffffffffffffffff16148061132b57508373ffffffffffffffffffffffffffffffffffffffff1661131384610566565b73ffffffffffffffffffffffffffffffffffffffff16145b8061133c575061133b8185610fc4565b5b91505092915050565b8273ffffffffffffffffffffffffffffffffffffffff1661136582610987565b73ffffffffffffffffffffffffffffffffffffffff16146113bb576040517f08c379a00000000000000000000000000000000000000000000000000000000081526004016113b290612f11565b60405180910390fd5b600073ffffffffffffffffffffffffffffffffffffffff168273ffffffffffffffffffffffffffffffffffffffff160361142a576040517f08c379a000000000000000000000000000000000000000000000000000000000815260040161142190612fa3565b60405180910390fd5b6114358383836116a8565b6114406000826111ae565b6001600360008573ffffffffffffffffffffffffffffffffffffffff1673ffffffffffffffffffffffffffffffffffffffff16815260200190815260200160002060008282546114909190612ff2565b925050819055506001600360008473ffffffffffffffffffffffffffffffffffffffff1673ffffffffffffffffffffffffffffffffffffffff16815260200190815260200160002060008282546114e79190613026565b92505081905550816002600083815260200190815260200160002060006101000a81548173ffffffffffffffffffffffffffffffffffffffff021916908373ffffffffffffffffffffffffffffffffffffffff160217905550808273ffffffffffffffffffffffffffffffffffffffff168473ffffffffffffffffffffffffffffffffffffffff167fddf252ad1be2c89b69c2b068fc378daa952ba7f163c4a11628f55a4df523b3ef60405160405180910390a4505050565b6115ab848484611345565b6115b7848484846117ba565b6115f6576040517f08c379a00000000000000000000000000000000000000000000000000000000081526004016115ed906130ee565b60405180910390fd5b50505050565b6001816000016000828254019250508190555050565b600081600001549050919050565b61163a828260405180602001604052806000815250611941565b5050565b60007f01ffc9a7000000000000000000000000000000000000000000000000000000007bffffffffffffffffffffffffffffffffffffffffffffffffffffffff1916827bffffffffffffffffffffffffffffffffffffffffffffffffffffffff1916149050919050565b6116b383838361199c565b600073ffffffffffffffffffffffffffffffffffffffff168373ffffffffffffffffffffffffffffffffffffffff16036116f5576116f0816119a1565b611734565b8173ffffffffffffffffffffffffffffffffffffffff168373ffffffffffffffffffffffffffffffffffffffff16146117335761173283826119ea565b5b5b600073ffffffffffffffffffffffffffffffffffffffff168273ffffffffffffffffffffffffffffffffffffffff16036117765761177181611b57565b6117b5565b8273ffffffffffffffffffffffffffffffffffffffff168273ffffffffffffffffffffffffffffffffffffffff16146117b4576117b38282611c28565b5b5b505050565b60006117db8473ffffffffffffffffffffffffffffffffffffffff16611ca7565b15611934578373ffffffffffffffffffffffffffffffffffffffff1663150b7a026118046111a6565b8786866040518563ffffffff1660e01b81526004016118269493929190613163565b6020604051808303816000875af192505050801561186257506040513d601f19601f8201168201806040525081019061185f91906131c4565b60015b6118e4573d8060008114611892576040519150601f19603f3d011682016040523d82523d6000602084013e611897565b606091505b5060008151036118dc576040517f08c379a00000000000000000000000000000000000000000000000000000000081526004016118d3906130ee565b60405180910390fd5b805181602001fd5b63150b7a0260e01b7bffffffffffffffffffffffffffffffffffffffffffffffffffffffff1916817bffffffffffffffffffffffffffffffffffffffffffffffffffffffff191614915050611939565b600190505b949350505050565b61194b8383611cba565b61195860008484846117ba565b611997576040517f08c379a000000000000000000000000000000000000000000000000000000000815260040161198e906130ee565b60405180910390fd5b505050565b505050565b6008805490506009600083815260200190815260200160002081905550600881908060018154018082558091505060019003906000526020600020016000909190919091505550565b600060016119f784610a38565b611a019190612ff2565b9050600060076000848152602001908152602001600020549050818114611ae6576000600660008673ffffffffffffffffffffffffffffffffffffffff1673ffffffffffffffffffffffffffffffffffffffff168152602001908152602001600020600084815260200190815260200160002054905080600660008773ffffffffffffffffffffffffffffffffffffffff1673ffffffffffffffffffffffffffffffffffffffff168152602001908152602001600020600084815260200190815260200160002081905550816007600083815260200190815260200160002081905550505b6007600084815260200190815260200160002060009055600660008573ffffffffffffffffffffffffffffffffffffffff1673ffffffffffffffffffffffffffffffffffffffff16815260200190815260200160002060008381526020019081526020016000206000905550505050565b60006001600880549050611b6b9190612ff2565b9050600060096000848152602001908152602001600020549050600060088381548110611b9b57611b9a61293e565b5b906000526020600020015490508060088381548110611bbd57611bbc61293e565b5b906000526020600020018190555081600960008381526020019081526020016000208190555060096000858152602001908152602001600020600090556008805480611c0c57611c0b6131f1565b5b6001900381819060005260206000200160009055905550505050565b6000611c3383610a38565b905081600660008573ffffffffffffffffffffffffffffffffffffffff1673ffffffffffffffffffffffffffffffffffffffff168152602001908152602001600020600083815260200190815260200160002081905550806007600084815260200190815260200160002081905550505050565b600080823b905060008111915050919050565b600073ffffffffffffffffffffffffffffffffffffffff168273ffffffffffffffffffffffffffffffffffffffff1603611d29576040517f08c379a0000000000000000000000000000000000000000000000000000000008152600401611d209061326c565b60405180910390fd5b611d328161113a565b15611d72576040517f08c379a0000000000000000000000000000000000000000000000000000000008152600401611d69906132d8565b60405180910390fd5b611d7e600083836116a8565b6001600360008473ffffffffffffffffffffffffffffffffffffffff1673ffffffffffffffffffffffffffffffffffffffff1681526020019081526020016000206000828254611dce9190613026565b92505081905550816002600083815260200190815260200160002060006101000a81548173ffffffffffffffffffffffffffffffffffffffff021916908373ffffffffffffffffffffffffffffffffffffffff160217905550808273ffffffffffffffffffffffffffffffffffffffff16600073ffffffffffffffffffffffffffffffffffffffff167fddf252ad1be2c89b69c2b068fc378daa952ba7f163c4a11628f55a4df523b3ef60405160405180910390a45050565b6000604051905090565b600080fd5b600080fd5b60007fffffffff0000000000000000000000000000000000000000000000000000000082169050919050565b611ed081611e9b565b8114611edb57600080fd5b50565b600081359050611eed81611ec7565b92915050565b600060208284031215611f0957611f08611e91565b5b6000611f1784828501611ede565b91505092915050565b60008115159050919050565b611f3581611f20565b82525050565b6000602082019050611f506000830184611f2c565b92915050565b600081519050919050565b600082825260208201905092915050565b60005b83811015611f90578082015181840152602081019050611f75565b83811115611f9f576000848401525b50505050565b6000601f19601f8301169050919050565b6000611fc182611f56565b611fcb8185611f61565b9350611fdb818560208601611f72565b611fe481611fa5565b840191505092915050565b600060208201905081810360008301526120098184611fb6565b905092915050565b6000819050919050565b61202481612011565b811461202f57600080fd5b50565b6000813590506120418161201b565b92915050565b60006020828403121561205d5761205c611e91565b5b600061206b84828501612032565b91505092915050565b600073ffffffffffffffffffffffffffffffffffffffff82169050919050565b600061209f82612074565b9050919050565b6120af81612094565b82525050565b60006020820190506120ca60008301846120a6565b92915050565b6120d981612094565b81146120e457600080fd5b50565b6000813590506120f6816120d0565b92915050565b6000806040838503121561211357612112611e91565b5b6000612121858286016120e7565b925050602061213285828601612032565b9150509250929050565b61214581612011565b82525050565b6000606082019050612160600083018661213c565b61216d60208301856120a6565b818103604083015261217f8184611fb6565b9050949350505050565b600060208201905061219e600083018461213c565b92915050565b6000806000606084860312156121bd576121bc611e91565b5b60006121cb868287016120e7565b93505060206121dc868287016120e7565b92505060406121ed86828701612032565b9150509250925092565b60006020828403121561220d5761220c611e91565b5b600061221b848285016120e7565b91505092915050565b61222d81611f20565b811461223857600080fd5b50565b60008135905061224a81612224565b92915050565b6000806040838503121561226757612266611e91565b5b6000612275858286016120e7565b92505060206122868582860161223b565b9150509250929050565b600080fd5b600080fd5b7f4e487b7100000000000000000000000000000000000000000000000000000000600052604160045260246000fd5b6122d282611fa5565b810181811067ffffffffffffffff821117156122f1576122f061229a565b5b80604052505050565b6000612304611e87565b905061231082826122c9565b919050565b600067ffffffffffffffff8211156123305761232f61229a565b5b61233982611fa5565b9050602081019050919050565b82818337600083830152505050565b600061236861236384612315565b6122fa565b90508281526020810184848401111561238457612383612295565b5b61238f848285612346565b509392505050565b600082601f8301126123ac576123ab612290565b5b81356123bc848260208601612355565b91505092915050565b600080600080608085870312156123df576123de611e91565b5b60006123ed878288016120e7565b94505060206123fe878288016120e7565b935050604061240f87828801612032565b925050606085013567ffffffffffffffff8111156124305761242f611e96565b5b61243c87828801612397565b91505092959194509250565b600067ffffffffffffffff8211156124635761246261229a565b5b61246c82611fa5565b9050602081019050919050565b600061248c61248784612448565b6122fa565b9050828152602081018484840111156124a8576124a7612295565b5b6124b3848285612346565b509392505050565b600082601f8301126124d0576124cf612290565b5b81356124e0848260208601612479565b91505092915050565b6000602082840312156124ff576124fe611e91565b5b600082013567ffffffffffffffff81111561251d5761251c611e96565b5b612529848285016124bb565b91505092915050565b6000806040838503121561254957612548611e91565b5b6000612557858286016120e7565b9250506020612568858286016120e7565b9150509250929050565b7f4e487b7100000000000000000000000000000000000000000000000000000000600052602260045260246000fd5b600060028204905060018216806125b957607f821691505b6020821081036125cc576125cb612572565b5b50919050565b7f4552433732313a20617070726f76656420717565727920666f72206e6f6e657860008201527f697374656e7420746f6b656e0000000000000000000000000000000000000000602082015250565b600061262e602c83611f61565b9150612639826125d2565b604082019050919050565b6000602082019050818103600083015261265d81612621565b9050919050565b7f4552433732313a20617070726f76616c20746f2063757272656e74206f776e6560008201527f7200000000000000000000000000000000000000000000000000000000000000602082015250565b60006126c0602183611f61565b91506126cb82612664565b604082019050919050565b600060208201905081810360008301526126ef816126b3565b9050919050565b7f4552433732313a20617070726f76652063616c6c6572206973206e6f74206f7760008201527f6e6572206e6f7220617070726f76656420666f7220616c6c0000000000000000602082015250565b6000612752603883611f61565b915061275d826126f6565b604082019050919050565b6000602082019050818103600083015261278181612745565b9050919050565b7f4552433732313a207472616e736665722063616c6c6572206973206e6f74206f60008201527f776e6572206e6f7220617070726f766564000000000000000000000000000000602082015250565b60006127e4603183611f61565b91506127ef82612788565b604082019050919050565b60006020820190508181036000830152612813816127d7565b9050919050565b7f455243373231456e756d657261626c653a206f776e657220696e646578206f7560008201527f74206f6620626f756e6473000000000000000000000000000000000000000000602082015250565b6000612876602b83611f61565b91506128818261281a565b604082019050919050565b600060208201905081810360008301526128a581612869565b9050919050565b7f455243373231456e756d657261626c653a20676c6f62616c20696e646578206f60008201527f7574206f6620626f756e64730000000000000000000000000000000000000000602082015250565b6000612908602c83611f61565b9150612913826128ac565b604082019050919050565b60006020820190508181036000830152612937816128fb565b9050919050565b7f4e487b7100000000000000000000000000000000000000000000000000000000600052603260045260246000fd5b7f4552433732313a206f776e657220717565727920666f72206e6f6e657869737460008201527f656e7420746f6b656e0000000000000000000000000000000000000000000000602082015250565b60006129c9602983611f61565b91506129d48261296d565b604082019050919050565b600060208201905081810360008301526129f8816129bc565b9050919050565b7f4552433732313a2062616c616e636520717565727920666f7220746865207a6560008201527f726f206164647265737300000000000000000000000000000000000000000000602082015250565b6000612a5b602a83611f61565b9150612a66826129ff565b604082019050919050565b60006020820190508181036000830152612a8a81612a4e565b9050919050565b7f4552433732313a20617070726f766520746f2063616c6c657200000000000000600082015250565b6000612ac7601983611f61565b9150612ad282612a91565b602082019050919050565b60006020820190508181036000830152612af681612aba565b9050919050565b7f45524337323155524953746f726167653a2055524920717565727920666f722060008201527f6e6f6e6578697374656e7420746f6b656e000000000000000000000000000000602082015250565b6000612b59603183611f61565b9150612b6482612afd565b604082019050919050565b60006020820190508181036000830152612b8881612b4c565b9050919050565b60008190508160005260206000209050919050565b60006020601f8301049050919050565b600082821b905092915050565b600060088302612bf17fffffffffffffffffffffffffffffffffffffffffffffffffffffffffffffffff82612bb4565b612bfb8683612bb4565b95508019841693508086168417925050509392505050565b6000819050919050565b6000612c38612c33612c2e84612011565b612c13565b612011565b9050919050565b6000819050919050565b612c5283612c1d565b612c66612c5e82612c3f565b848454612bc1565b825550505050565b600090565b612c7b612c6e565b612c86818484612c49565b505050565b5b81811015612caa57612c9f600082612c73565b600181019050612c8c565b5050565b601f821115612cef57612cc081612b8f565b612cc984612ba4565b81016020851015612cd8578190505b612cec612ce485612ba4565b830182612c8b565b50505b505050565b600082821c905092915050565b6000612d1260001984600802612cf4565b1980831691505092915050565b6000612d2b8383612d01565b9150826002028217905092915050565b612d4482611f56565b67ffffffffffffffff811115612d5d57612d5c61229a565b5b612d6782546125a1565b612d72828285612cae565b600060209050601f831160018114612da55760008415612d93578287015190505b612d9d8582612d1f565b865550612e05565b601f198416612db386612b8f565b60005b82811015612ddb57848901518255600182019150602085019450602081019050612db6565b86831015612df85784890151612df4601f891682612d01565b8355505b6001600288020188555050505b505050505050565b7f4552433732313a206f70657261746f7220717565727920666f72206e6f6e657860008201527f697374656e7420746f6b656e0000000000000000000000000000000000000000602082015250565b6000612e69602c83611f61565b9150612e7482612e0d565b604082019050919050565b60006020820190508181036000830152612e9881612e5c565b9050919050565b7f4552433732313a207472616e73666572206f6620746f6b656e2074686174206960008201527f73206e6f74206f776e0000000000000000000000000000000000000000000000602082015250565b6000612efb602983611f61565b9150612f0682612e9f565b604082019050919050565b60006020820190508181036000830152612f2a81612eee565b9050919050565b7f4552433732313a207472616e7366657220746f20746865207a65726f2061646460008201527f7265737300000000000000000000000000000000000000000000000000000000602082015250565b6000612f8d602483611f61565b9150612f9882612f31565b604082019050919050565b60006020820190508181036000830152612fbc81612f80565b9050919050565b7f4e487b7100000000000000000000000000000000000000000000000000000000600052601160045260246000fd5b6000612ffd82612011565b915061300883612011565b92508282101561301b5761301a612fc3565b5b828203905092915050565b600061303182612011565b915061303c83612011565b9250827fffffffffffffffffffffffffffffffffffffffffffffffffffffffffffffffff0382111561307157613070612fc3565b5b828201905092915050565b7f4552433732313a207472616e7366657220746f206e6f6e20455243373231526560008201527f63656976657220696d706c656d656e7465720000000000000000000000000000602082015250565b60006130d8603283611f61565b91506130e38261307c565b604082019050919050565b60006020820190508181036000830152613107816130cb565b9050919050565b600081519050919050565b600082825260208201905092915050565b60006131358261310e565b61313f8185613119565b935061314f818560208601611f72565b61315881611fa5565b840191505092915050565b600060808201905061317860008301876120a6565b61318560208301866120a6565b613192604083018561213c565b81810360608301526131a4818461312a565b905095945050505050565b6000815190506131be81611ec7565b92915050565b6000602082840312156131da576131d9611e91565b5b60006131e8848285016131af565b91505092915050565b7f4e487b7100000000000000000000000000000000000000000000000000000000600052603160045260246000fd5b7f4552433732313a206d696e7420746f20746865207a65726f2061646472657373600082015250565b6000613256602083611f61565b915061326182613220565b602082019050919050565b6000602082019050818103600083015261328581613249565b9050919050565b7f4552433732313a20746f6b656e20616c7265616479206d696e74656400000000600082015250565b60006132c2601c83611f61565b91506132cd8261328c565b602082019050919050565b600060208201905081810360008301526132f1816132b5565b905091905056fea26469706673582212204bdb8b0156ff23369ebf40446b67222e2a8393bbe1a6d0432445f13b53a364f864736f6c634300080f0033",
  "immutableReferences": {},
  "source": "// SPDX-License-Identifier: MIT\r\npragma solidity ^0.8.0;\r\n\r\nimport \"@openzeppelin/contracts/token/ERC721/ERC721.sol\";\r\nimport \"@openzeppelin/contracts/token/ERC721/extensions/ERC721Enumerable.sol\";\r\nimport \"@openzeppelin/contracts/token/ERC721/extensions/ERC721URIStorage.sol\";\r\nimport \"@openzeppelin/contracts/utils/Counters.sol\";\r\n\r\ncontract ArtToken is ERC721Enumerable{\r\n  using Counters for Counters.Counter;\r\n\r\n  Counters.Counter private _tokenIds;\r\n  address public marketplace;\r\n\r\n  struct Item {\r\n    uint256 id;\r\n    address creator;\r\n    string uri;//metadata url\r\n  }\r\n\r\n  mapping(uint256 => Item) public Items; //id => Item\r\n\r\n  constructor () ERC721(\"ArtToken\", \"ARTK\") {}\r\n\r\n  function mint(string memory uri) public returns (uint256){\r\n    _tokenIds.increment();\r\n    uint256 newItemId = _tokenIds.current();\r\n    _safeMint(msg.sender, newItemId);\r\n    approve(marketplace, newItemId);\r\n\r\n    Items[newItemId] = Item({\r\n      id: newItemId, \r\n      creator: msg.sender,\r\n      uri: uri\r\n    });\r\n\r\n    return newItemId;\r\n  }\r\n\r\n  function tokenURI(uint256 tokenId) public view override returns (string memory) {\r\n    require(_exists(tokenId), \"ERC721URIStorage: URI query for nonexistent token\");\r\n    return Items[tokenId].uri;\r\n  }\r\n\r\n  function setMarketplace(address market) public {\r\n    //require(msg.sender ==);\r\n    marketplace = market;\r\n  }\r\n\r\n  function customTransfer(address from, address to, uint256 tokenId) public {\r\n    _transfer(from, to, tokenId);\r\n  }\r\n\r\n}",
  "sourcePath": "C:\\Users\\SelahattinSonmez\\Desktop\\contracts\\contracts\\ArtToken.sol",
  "compiler": {
    "name": "solc",
    "version": "0.8.15+commit.e14f2714.Emscripten.clang"
  },
  "schemaVersion": "3.4.4",
  "updatedAt": "2022-06-26T18:24:00.542Z",
  "networkType": "ethereum",
  "devdoc": {
    "kind": "dev",
    "methods": {
      "approve(address,uint256)": {
        "details": "See {IERC721-approve}."
      },
      "balanceOf(address)": {
        "details": "See {IERC721-balanceOf}."
      },
      "getApproved(uint256)": {
        "details": "See {IERC721-getApproved}."
      },
      "isApprovedForAll(address,address)": {
        "details": "See {IERC721-isApprovedForAll}."
      },
      "name()": {
        "details": "See {IERC721Metadata-name}."
      },
      "ownerOf(uint256)": {
        "details": "See {IERC721-ownerOf}."
      },
      "safeTransferFrom(address,address,uint256)": {
        "details": "See {IERC721-safeTransferFrom}."
      },
      "safeTransferFrom(address,address,uint256,bytes)": {
        "details": "See {IERC721-safeTransferFrom}."
      },
      "setApprovalForAll(address,bool)": {
        "details": "See {IERC721-setApprovalForAll}."
      },
      "supportsInterface(bytes4)": {
        "details": "See {IERC165-supportsInterface}."
      },
      "symbol()": {
        "details": "See {IERC721Metadata-symbol}."
      },
      "tokenByIndex(uint256)": {
        "details": "See {IERC721Enumerable-tokenByIndex}."
      },
      "tokenOfOwnerByIndex(address,uint256)": {
        "details": "See {IERC721Enumerable-tokenOfOwnerByIndex}."
      },
      "tokenURI(uint256)": {
        "details": "See {IERC721Metadata-tokenURI}."
      },
      "totalSupply()": {
        "details": "See {IERC721Enumerable-totalSupply}."
      },
      "transferFrom(address,address,uint256)": {
        "details": "See {IERC721-transferFrom}."
      }
    },
    "version": 1
  },
  "userdoc": {
    "kind": "user",
    "methods": {},
    "version": 1
  }
}